{
  "contractName": "EventTicketsV2",
  "abi": [
    {
      "inputs": [],
      "payable": false,
      "stateMutability": "nonpayable",
      "type": "constructor"
    },
    {
      "anonymous": false,
      "inputs": [
        {
          "indexed": false,
          "internalType": "address",
          "name": "buyer",
          "type": "address"
        },
        {
          "indexed": false,
          "internalType": "uint256",
          "name": "eventId",
          "type": "uint256"
        },
        {
          "indexed": false,
          "internalType": "uint256",
          "name": "numTickets",
          "type": "uint256"
        }
      ],
      "name": "LogBuyTickets",
      "type": "event"
    },
    {
      "anonymous": false,
      "inputs": [
        {
          "indexed": false,
          "internalType": "address",
          "name": "owner",
          "type": "address"
        },
        {
          "indexed": false,
          "internalType": "uint256",
          "name": "balance",
          "type": "uint256"
        },
        {
          "indexed": false,
          "internalType": "uint256",
          "name": "eventId",
          "type": "uint256"
        }
      ],
      "name": "LogEndSale",
      "type": "event"
    },
    {
      "anonymous": false,
      "inputs": [
        {
          "indexed": false,
          "internalType": "string",
          "name": "desc",
          "type": "string"
        },
        {
          "indexed": false,
          "internalType": "string",
          "name": "url",
          "type": "string"
        },
        {
          "indexed": false,
          "internalType": "uint256",
          "name": "ticketsAvailable",
          "type": "uint256"
        },
        {
          "indexed": false,
          "internalType": "uint256",
          "name": "eventId",
          "type": "uint256"
        }
      ],
      "name": "LogEventAdded",
      "type": "event"
    },
    {
      "anonymous": false,
      "inputs": [
        {
          "indexed": false,
          "internalType": "address",
          "name": "accountRefunded",
          "type": "address"
        },
        {
          "indexed": false,
          "internalType": "uint256",
          "name": "eventId",
          "type": "uint256"
        },
        {
          "indexed": false,
          "internalType": "uint256",
          "name": "numTickets",
          "type": "uint256"
        }
      ],
      "name": "LogGetRefund",
      "type": "event"
    },
    {
      "constant": true,
      "inputs": [],
      "name": "idGenerator",
      "outputs": [
        {
          "internalType": "uint256",
          "name": "",
          "type": "uint256"
        }
      ],
      "payable": false,
      "stateMutability": "view",
      "type": "function"
    },
    {
      "constant": true,
      "inputs": [],
      "name": "owner",
      "outputs": [
        {
          "internalType": "address payable",
          "name": "",
          "type": "address"
        }
      ],
      "payable": false,
      "stateMutability": "view",
      "type": "function"
    },
    {
      "constant": false,
      "inputs": [
        {
          "internalType": "string",
          "name": "description",
          "type": "string"
        },
        {
          "internalType": "string",
          "name": "website",
          "type": "string"
        },
        {
          "internalType": "uint256",
          "name": "totalTickets",
          "type": "uint256"
        }
      ],
      "name": "addEvent",
      "outputs": [
        {
          "internalType": "uint256",
          "name": "",
          "type": "uint256"
        }
      ],
      "payable": false,
      "stateMutability": "nonpayable",
      "type": "function"
    },
    {
      "constant": true,
      "inputs": [
        {
          "internalType": "uint256",
          "name": "eventId",
          "type": "uint256"
        }
      ],
      "name": "readEvent",
      "outputs": [
        {
          "internalType": "string",
          "name": "description",
          "type": "string"
        },
        {
          "internalType": "string",
          "name": "website",
          "type": "string"
        },
        {
          "internalType": "uint256",
          "name": "ticketsAvailable",
          "type": "uint256"
        },
        {
          "internalType": "uint256",
          "name": "sales",
          "type": "uint256"
        },
        {
          "internalType": "bool",
          "name": "isOpen",
          "type": "bool"
        }
      ],
      "payable": false,
      "stateMutability": "view",
      "type": "function"
    },
    {
      "constant": false,
      "inputs": [
        {
          "internalType": "uint256",
          "name": "eventId",
          "type": "uint256"
        },
        {
          "internalType": "uint256",
          "name": "numberOfTickets",
          "type": "uint256"
        }
      ],
      "name": "buyTickets",
      "outputs": [],
      "payable": true,
      "stateMutability": "payable",
      "type": "function"
    },
    {
      "constant": false,
      "inputs": [
        {
          "internalType": "uint256",
          "name": "eventId",
          "type": "uint256"
        }
      ],
      "name": "getRefund",
      "outputs": [],
      "payable": false,
      "stateMutability": "nonpayable",
      "type": "function"
    },
    {
      "constant": true,
      "inputs": [
        {
          "internalType": "uint256",
          "name": "eventId",
          "type": "uint256"
        }
      ],
      "name": "getBuyerNumberTickets",
      "outputs": [
        {
          "internalType": "uint256",
          "name": "",
          "type": "uint256"
        }
      ],
      "payable": false,
      "stateMutability": "view",
      "type": "function"
    },
    {
      "constant": false,
      "inputs": [
        {
          "internalType": "uint256",
          "name": "eventId",
          "type": "uint256"
        }
      ],
      "name": "endSale",
      "outputs": [],
      "payable": false,
      "stateMutability": "nonpayable",
      "type": "function"
    }
  ],
  "bytecode": "0x6080604052606460015534801561001557600080fd5b50336000806101000a81548173ffffffffffffffffffffffffffffffffffffffff021916908373ffffffffffffffffffffffffffffffffffffffff1602179055506111e6806100656000396000f3fe60806040526004361061007b5760003560e01c80638da5cb5b1161004e5780638da5cb5b146102bf578063d2f0be9914610316578063e1ba30a914610351578063e7bd92b91461048a5761007b565b806304d1a846146100805780633ddedd38146100bb5780634da19f201461010a5780638627df4614610287575b600080fd5b34801561008c57600080fd5b506100b9600480360360208110156100a357600080fd5b81019080803590602001909291905050506104b5565b005b3480156100c757600080fd5b506100f4600480360360208110156100de57600080fd5b81019080803590602001909291905050506106a4565b6040518082815260200191505060405180910390f35b34801561011657600080fd5b506102716004803603606081101561012d57600080fd5b810190808035906020019064010000000081111561014a57600080fd5b82018360208201111561015c57600080fd5b8035906020019184600183028401116401000000008311171561017e57600080fd5b91908080601f016020809104026020016040519081016040528093929190818152602001838380828437600081840152601f19601f820116905080830192505050505050509192919290803590602001906401000000008111156101e157600080fd5b8201836020820111156101f357600080fd5b8035906020019184600183028401116401000000008311171561021557600080fd5b91908080601f016020809104026020016040519081016040528093929190818152602001838380828437600081840152601f19601f82011690508083019250505050505050919291929080359060200190929190505050610701565b6040518082815260200191505060405180910390f35b6102bd6004803603604081101561029d57600080fd5b8101908080359060200190929190803590602001909291905050506109a2565b005b3480156102cb57600080fd5b506102d4610ce6565b604051808273ffffffffffffffffffffffffffffffffffffffff1673ffffffffffffffffffffffffffffffffffffffff16815260200191505060405180910390f35b34801561032257600080fd5b5061034f6004803603602081101561033957600080fd5b8101908080359060200190929190505050610d0b565b005b34801561035d57600080fd5b5061038a6004803603602081101561037457600080fd5b8101908080359060200190929190505050610ed3565b60405180806020018060200186815260200185815260200184151515158152602001838103835288818151815260200191508051906020019080838360005b838110156103e45780820151818401526020810190506103c9565b50505050905090810190601f1680156104115780820380516001836020036101000a031916815260200191505b50838103825287818151815260200191508051906020019080838360005b8381101561044a57808201518184015260208101905061042f565b50505050905090810190601f1680156104775780820380516001836020036101000a031916815260200191505b5097505050505050505060405180910390f35b34801561049657600080fd5b5061049f6110bc565b6040518082815260200191505060405180910390f35b6000809054906101000a900473ffffffffffffffffffffffffffffffffffffffff1673ffffffffffffffffffffffffffffffffffffffff163373ffffffffffffffffffffffffffffffffffffffff1614610577576040517f08c379a000000000000000000000000000000000000000000000000000000000815260040180806020018281038252601c8152602001807f4f6e6c7920746865206f776e657220697320617574686f72697a65640000000081525060200191505060405180910390fd5b6000600154600360008481526020019081526020016000206003015402905060006003600084815260200190815260200160002060050160006101000a81548160ff0219169083151502179055506000809054906101000a900473ffffffffffffffffffffffffffffffffffffffff1673ffffffffffffffffffffffffffffffffffffffff166108fc829081150290604051600060405180830381858888f1935050505015801561062c573d6000803e3d6000fd5b507f6497e6dff32a753fe6b3a2b3430e5f86d65c6e35cf360d52eb3494711d7d7a1c338284604051808473ffffffffffffffffffffffffffffffffffffffff1673ffffffffffffffffffffffffffffffffffffffff168152602001838152602001828152602001935050505060405180910390a15050565b60006003600083815260200190815260200160002060040160003373ffffffffffffffffffffffffffffffffffffffff1673ffffffffffffffffffffffffffffffffffffffff168152602001908152602001600020549050919050565b60008060009054906101000a900473ffffffffffffffffffffffffffffffffffffffff1673ffffffffffffffffffffffffffffffffffffffff163373ffffffffffffffffffffffffffffffffffffffff16146107c5576040517f08c379a000000000000000000000000000000000000000000000000000000000815260040180806020018281038252601c8152602001807f4f6e6c7920746865206f776e657220697320617574686f72697a65640000000081525060200191505060405180910390fd5b60006002549050846003600083815260200190815260200160002060000190805190602001906107f69291906110c2565b50836003600083815260200190815260200160002060010190805190602001906108219291906110c2565b5082600360008381526020019081526020016000206002018190555060016003600083815260200190815260200160002060050160006101000a81548160ff0219169083151502179055506002600081548092919060010191905055507f7d1d82c13762b51876068c852c5d404d0fa38fb615c14eebefafb60bdb4bd1b285858584604051808060200180602001858152602001848152602001838103835287818151815260200191508051906020019080838360005b838110156108f35780820151818401526020810190506108d8565b50505050905090810190601f1680156109205780820380516001836020036101000a031916815260200191505b50838103825286818151815260200191508051906020019080838360005b8381101561095957808201518184015260208101905061093e565b50505050905090810190601f1680156109865780820380516001836020036101000a031916815260200191505b50965050505050505060405180910390a1809150509392505050565b60006001548202905060008111610a21576040517f08c379a00000000000000000000000000000000000000000000000000000000081526004018080602001828103825260188152602001807f4572726f72203a20546f74616c2070726963652069732030000000000000000081525060200191505060405180910390fd5b6003600084815260200190815260200160002060050160009054906101000a900460ff16610ab7576040517f08c379a00000000000000000000000000000000000000000000000000000000081526004018080602001828103825260188152602001807f4572726f72203a2073616c65206973206e6f74206f70656e000000000000000081525060200191505060405180910390fd5b80341015610b10576040517f08c379a00000000000000000000000000000000000000000000000000000000081526004018080602001828103825260278152602001806111686027913960400191505060405180910390fd5b6003600084815260200190815260200160002060030154600360008581526020019081526020016000206002015403821115610b97576040517f08c379a000000000000000000000000000000000000000000000000000000000815260040180806020018281038252602381526020018061118f6023913960400191505060405180910390fd5b816003600085815260200190815260200160002060040160003373ffffffffffffffffffffffffffffffffffffffff1673ffffffffffffffffffffffffffffffffffffffff1681526020019081526020016000206000828254019250508190555081600360008581526020019081526020016000206003016000828254019250508190555080341115610c6e573373ffffffffffffffffffffffffffffffffffffffff166108fc8234039081150290604051600060405180830381858888f19350505050158015610c6c573d6000803e3d6000fd5b505b7f15827fa78fedf80f93aa72ce61e705b1362cab60ae596b1bb327076fc3856c24338484604051808473ffffffffffffffffffffffffffffffffffffffff1673ffffffffffffffffffffffffffffffffffffffff168152602001838152602001828152602001935050505060405180910390a1505050565b6000809054906101000a900473ffffffffffffffffffffffffffffffffffffffff1681565b6000610d16826106a4565b905060006001548202905060008211610d97576040517f08c379a000000000000000000000000000000000000000000000000000000000815260040180806020018281038252601c8152602001807f4572726f72203a204e6f207469636b65747320746f20726566756e640000000081525060200191505060405180910390fd5b81600360008581526020019081526020016000206003016000828254039250508190555060006003600085815260200190815260200160002060040160003373ffffffffffffffffffffffffffffffffffffffff1673ffffffffffffffffffffffffffffffffffffffff168152602001908152602001600020819055503373ffffffffffffffffffffffffffffffffffffffff166108fc829081150290604051600060405180830381858888f19350505050158015610e5a573d6000803e3d6000fd5b507f73ebb2050cb3ee6869929e7a26925e92e201f14902e155037f1f90af931b3233338484604051808473ffffffffffffffffffffffffffffffffffffffff1673ffffffffffffffffffffffffffffffffffffffff168152602001838152602001828152602001935050505060405180910390a1505050565b606080600080600060036000878152602001908152602001600020600001600360008881526020019081526020016000206001016003600089815260200190815260200160002060030154600360008a81526020019081526020016000206002015403600360008a815260200190815260200160002060030154600360008b815260200190815260200160002060050160009054906101000a900460ff16848054600181600116156101000203166002900480601f0160208091040260200160405190810160405280929190818152602001828054600181600116156101000203166002900480156110065780601f10610fdb57610100808354040283529160200191611006565b820191906000526020600020905b815481529060010190602001808311610fe957829003601f168201915b50505050509450838054600181600116156101000203166002900480601f0160208091040260200160405190810160405280929190818152602001828054600181600116156101000203166002900480156110a25780601f10611077576101008083540402835291602001916110a2565b820191906000526020600020905b81548152906001019060200180831161108557829003601f168201915b505050505093509450945094509450945091939590929450565b60025481565b828054600181600116156101000203166002900490600052602060002090601f016020900481019282601f1061110357805160ff1916838001178555611131565b82800160010185558215611131579182015b82811115611130578251825591602001919060010190611115565b5b50905061113e9190611142565b5090565b61116491905b80821115611160576000816000905550600101611148565b5090565b9056fe4572726f72203a206e6f7420656e6f7567682076616c756520746f20706179207469636b6574734572726f72203a206e6f7420656e6f756768207469636b65747320666f722073616c65a265627a7a7231582077e40c43491784caa0c2c0acd0294ea82e1f343fc74dedb52607dc9806b7ec9a64736f6c634300050c0032",
  "source": "pragma solidity ^0.5.0;\r\n\r\n    /*\r\n        The EventTicketsV2 contract keeps track of the details and ticket sales of multiple events.\r\n     */\r\ncontract EventTicketsV2 {\r\n\r\n    /*\r\n        Define an public owner variable. Set it to the creator of the contract when it is initialized.\r\n    */\r\naddress payable public owner;\r\n\r\n    uint PRICE_TICKET = 100 wei;\r\n\r\n    /*\r\n        Create a variable to keep track of the event ID numbers.\r\n    */\r\n    uint public idGenerator;\r\n\r\n    /*\r\n        Define an Event struct, similar to the V1 of this contract.\r\n        The struct has 6 fields: description, website (URL), totalTickets, sales, buyers, and isOpen.\r\n        Choose the appropriate variable type for each field.\r\n        The \"buyers\" field should keep track of addresses and how many tickets each buyer purchases.\r\n    */\r\n        struct Event {\r\n        string description;\r\n        string website;\r\n        uint totalTickets;\r\n        uint sales;\r\n        mapping (address => uint) buyers;\r\n        bool isOpen;\r\n    }\r\n\r\n    /*\r\n        Create a mapping to keep track of the events.\r\n        The mapping key is an integer, the value is an Event struct.\r\n        Call the mapping \"events\".\r\n    */\r\n    mapping (uint => Event) events;\r\n\r\n    event LogEventAdded(string desc, string url, uint ticketsAvailable, uint eventId);\r\n    event LogBuyTickets(address buyer, uint eventId, uint numTickets);\r\n    event LogGetRefund(address accountRefunded, uint eventId, uint numTickets);\r\n    event LogEndSale(address owner, uint balance, uint eventId);\r\n\r\n    /*\r\n        Create a modifier that throws an error if the msg.sender is not the owner.\r\n    */\r\n    modifier onlyOwner {\r\n        require(msg.sender == owner, \"Only the owner is authorized\");\r\n        _;\r\n    }\r\n\r\n    /*\r\n    Define a constructor.\r\n    Set the owner to the creator of the contract.\r\n    */\r\n    constructor() public {\r\n        owner = msg.sender;\r\n    }\r\n\r\n    /*\r\n        Define a function called addEvent().\r\n        This function takes 3 parameters, an event description, a URL, and a number of tickets.\r\n        Only the contract owner should be able to call this function.\r\n        In the function:\r\n            - Set the description, URL and ticket number in a new event.\r\n            - set the event to open\r\n            - set an event ID\r\n            - increment the ID\r\n            - emit the appropriate event\r\n            - return the event's ID\r\n    */\r\n    function addEvent(string memory description, string memory website, uint totalTickets) onlyOwner public\r\n        returns (uint)\r\n        {\r\n            uint eventId = idGenerator;\r\n\r\n            events[eventId].description = description;\r\n            events[eventId].website = website;\r\n            events[eventId].totalTickets = totalTickets;\r\n            events[eventId].isOpen = true;\r\n\r\n            idGenerator++;\r\n\r\n            emit LogEventAdded(description, website, totalTickets, eventId);\r\n\r\n            return eventId;\r\n        }\r\n\r\n    /*\r\n        Define a function called readEvent().\r\n        This function takes one parameter, the event ID.\r\n        The function returns information about the event this order:\r\n            1. description\r\n            2. URL\r\n            3. tickets available\r\n            4. sales\r\n            5. isOpen\r\n    */\r\n\r\n    function readEvent(uint eventId) public view\r\n        returns (string memory description, string memory website, uint ticketsAvailable, uint sales, bool isOpen)\r\n    {\r\n        return(\r\n            events[eventId].description,\r\n            events[eventId].website,\r\n            events[eventId].totalTickets - events[eventId].sales,\r\n            events[eventId].sales,\r\n            events[eventId].isOpen);\r\n    }\r\n\r\n    /*\r\n        Define a function called buyTickets().\r\n        This function allows users to buy tickets for a specific event.\r\n        This function takes 2 parameters, an event ID and a number of tickets.\r\n        The function checks:\r\n            - that the event sales are open\r\n            - that the transaction value is sufficient to purchase the number of tickets\r\n            - that there are enough tickets available to complete the purchase\r\n        The function:\r\n            - increments the purchasers ticket count\r\n            - increments the ticket sale count\r\n            - refunds any surplus value sent\r\n            - emits the appropriate event\r\n    */\r\n\r\n    function buyTickets(uint eventId, uint numberOfTickets) payable public {\r\n         uint totalPayable = numberOfTickets * PRICE_TICKET;\r\n    \r\n        require(totalPayable > 0, \"Error : Total price is 0\");\r\n        require(events[eventId].isOpen, \"Error : sale is not open\");\r\n        require(msg.value >= totalPayable, \"Error : not enough value to pay tickets\");\r\n        require(numberOfTickets <= (events[eventId].totalTickets - events[eventId].sales), \"Error : not enough tickets for sale\");\r\n\r\n        events[eventId].buyers[msg.sender] += numberOfTickets;\r\n        events[eventId].sales += numberOfTickets;\r\n\r\n        if(msg.value > totalPayable) {\r\n            msg.sender.transfer(msg.value - totalPayable);\r\n        }\r\n        emit LogBuyTickets(msg.sender, eventId, numberOfTickets);\r\n    }\r\n\r\n    /*\r\n        Define a function called getRefund().\r\n        This function allows users to request a refund for a specific event.\r\n        This function takes one parameter, the event ID.\r\n        TODO:\r\n            - check that a user has purchased tickets for the event\r\n            - remove refunded tickets from the sold count\r\n            - send appropriate value to the refund requester\r\n            - emit the appropriate event\r\n    */\r\n     function getRefund(uint eventId) public {\r\n        uint numberOfTickets = getBuyerNumberTickets(eventId);\r\n        uint totalPayable = numberOfTickets * PRICE_TICKET;\r\n\r\n        require(numberOfTickets > 0, \"Error : No tickets to refund\");\r\n\r\n        events[eventId].sales -= numberOfTickets;\r\n        events[eventId].buyers[msg.sender] = 0;\r\n\r\n        msg.sender.transfer(totalPayable);\r\n\r\n        emit LogGetRefund(msg.sender, eventId, numberOfTickets);\r\n    }\r\n\r\n    /*\r\n        Define a function called getBuyerNumberTickets()\r\n        This function takes one parameter, an event ID\r\n        This function returns a uint, the number of tickets that the msg.sender has purchased.\r\n    */\r\n    function getBuyerNumberTickets(uint eventId) view public\r\n        returns (uint)\r\n    {\r\n        return events[eventId].buyers[msg.sender];\r\n    }\r\n\r\n    /*\r\n        Define a function called endSale()\r\n        This function takes one parameter, the event ID\r\n        Only the contract owner can call this function\r\n        TODO:\r\n            - close event sales\r\n            - transfer the balance from those event sales to the contract owner\r\n            - emit the appropriate event\r\n    */\r\n    function endSale(uint eventId) onlyOwner public {\r\n        uint totalPayable = events[eventId].sales * PRICE_TICKET;\r\n        events[eventId].isOpen = false;\r\n        owner.transfer(totalPayable);\r\n\r\n        emit LogEndSale(msg.sender, totalPayable, eventId);\r\n    }\r\n}\r\n",
  "sourcePath": "D:/ETH/blockchain-Project/Development/event-ticket-exercise-EnochMbaebie/contracts/EventTicketsV2.sol",
  "compiler": {
    "name": "solc",
    "version": "0.5.12+commit.7709ece9.Emscripten.clang"
  },
  "schemaVersion": "3.0.20",
  "updatedAt": "2020-01-30T06:57:54.935Z",
  "networkType": "ethereum",
  "devdoc": {
    "methods": {}
  },
  "userdoc": {
    "methods": {}
  }
}